{
    "_format": "hh-sol-artifact-1",
    "contractName": "PiggyBankFactory",
    "sourceName": "contracts/PiggyBankFactory.sol",
    "abi": [
        {
            "anonymous": false,
            "inputs": [
                {
                    "indexed": true,
                    "internalType": "address",
                    "name": "owner",
                    "type": "address"
                },
                {
                    "indexed": false,
                    "internalType": "address",
                    "name": "piggyBankAddress",
                    "type": "address"
                }
            ],
            "name": "PiggyBankDeployed",
            "type": "event"
        },
        {
            "inputs": [
                {
                    "internalType": "address",
                    "name": "_usdc",
                    "type": "address"
                },
                {
                    "internalType": "address",
                    "name": "_usdt",
                    "type": "address"
                },
                {
                    "internalType": "address",
                    "name": "_dai",
                    "type": "address"
                },
                {
                    "internalType": "bytes32",
                    "name": "_salt",
                    "type": "bytes32"
                }
            ],
            "name": "deployPiggyBank",
            "outputs": [
                {
                    "internalType": "address",
                    "name": "",
                    "type": "address"
                }
            ],
            "stateMutability": "nonpayable",
            "type": "function"
        },
        {
            "inputs": [
                {
                    "internalType": "bytes32",
                    "name": "_salt",
                    "type": "bytes32"
                },
                {
                    "internalType": "address",
                    "name": "_usdc",
                    "type": "address"
                },
                {
                    "internalType": "address",
                    "name": "_usdt",
                    "type": "address"
                },
                {
                    "internalType": "address",
                    "name": "_dai",
                    "type": "address"
                }
            ],
            "name": "getAddress",
            "outputs": [
                {
                    "internalType": "address",
                    "name": "",
                    "type": "address"
                }
            ],
            "stateMutability": "view",
            "type": "function"
        },
        {
            "inputs": [
                {
                    "internalType": "address",
                    "name": "_user",
                    "type": "address"
                }
            ],
            "name": "getUserPiggyBanks",
            "outputs": [
                {
                    "internalType": "address[]",
                    "name": "",
                    "type": "address[]"
                }
            ],
            "stateMutability": "view",
            "type": "function"
        },
        {
            "inputs": [
                {
                    "internalType": "address",
                    "name": "",
                    "type": "address"
                },
                {
                    "internalType": "uint256",
                    "name": "",
                    "type": "uint256"
                }
            ],
            "name": "userPiggyBanks",
            "outputs": [
                {
                    "internalType": "address",
                    "name": "",
                    "type": "address"
                }
            ],
            "stateMutability": "view",
            "type": "function"
        }
    ],
    "bytecode": "0x6080604052348015600f57600080fd5b506121cb8061001f6000396000f3fe608060405234801561001057600080fd5b506004361061004c5760003560e01c8063663ee92f146100515780639532edc214610081578063aedee615146100b1578063dfd40432146100e1575b600080fd5b61006b600480360381019061006691906104c5565b610111565b6040516100789190610514565b60405180910390f35b61009b6004803603810190610096919061052f565b61015f565b6040516100a8919061061a565b60405180910390f35b6100cb60048036038101906100c69190610672565b61022b565b6040516100d89190610514565b60405180910390f35b6100fb60048036038101906100f691906106d9565b6102e4565b6040516101089190610514565b60405180910390f35b6000602052816000526040600020818154811061012d57600080fd5b906000526020600020016000915091509054906101000a900473ffffffffffffffffffffffffffffffffffffffff1681565b60606000808373ffffffffffffffffffffffffffffffffffffffff1673ffffffffffffffffffffffffffffffffffffffff16815260200190815260200160002080548060200260200160405190810160405280929190818152602001828054801561021f57602002820191906000526020600020905b8160009054906101000a900473ffffffffffffffffffffffffffffffffffffffff1673ffffffffffffffffffffffffffffffffffffffff16815260200190600101908083116101d5575b50505050509050919050565b6000806040518060200161023e9061041f565b6020820181038252601f19601f8201166040525085858560405160200161026793929190610740565b6040516020818303038152906040526040516020016102879291906107e8565b6040516020818303038152906040529050600060ff60f81b308884805190602001206040516020016102bc94939291906108c2565b6040516020818303038152906040528051906020012090508060001c92505050949350505050565b600080828686866040516102f79061041f565b61030393929190610740565b8190604051809103906000f5905080158015610323573d6000803e3d6000fd5b5090506000803373ffffffffffffffffffffffffffffffffffffffff1673ffffffffffffffffffffffffffffffffffffffff168152602001908152602001600020819080600181540180825580915050600190039060005260206000200160009091909190916101000a81548173ffffffffffffffffffffffffffffffffffffffff021916908373ffffffffffffffffffffffffffffffffffffffff1602179055503373ffffffffffffffffffffffffffffffffffffffff167f17aa0f5743254f56078b9904089383747a8446603b11ab6ca1f5b8a4777df7b78260405161040b9190610514565b60405180910390a280915050949350505050565b6118858061091183390190565b600080fd5b600073ffffffffffffffffffffffffffffffffffffffff82169050919050565b600061045c82610431565b9050919050565b61046c81610451565b811461047757600080fd5b50565b60008135905061048981610463565b92915050565b6000819050919050565b6104a28161048f565b81146104ad57600080fd5b50565b6000813590506104bf81610499565b92915050565b600080604083850312156104dc576104db61042c565b5b60006104ea8582860161047a565b92505060206104fb858286016104b0565b9150509250929050565b61050e81610451565b82525050565b60006020820190506105296000830184610505565b92915050565b6000602082840312156105455761054461042c565b5b60006105538482850161047a565b91505092915050565b600081519050919050565b600082825260208201905092915050565b6000819050602082019050919050565b61059181610451565b82525050565b60006105a38383610588565b60208301905092915050565b6000602082019050919050565b60006105c78261055c565b6105d18185610567565b93506105dc83610578565b8060005b8381101561060d5781516105f48882610597565b97506105ff836105af565b9250506001810190506105e0565b5085935050505092915050565b6000602082019050818103600083015261063481846105bc565b905092915050565b6000819050919050565b61064f8161063c565b811461065a57600080fd5b50565b60008135905061066c81610646565b92915050565b6000806000806080858703121561068c5761068b61042c565b5b600061069a8782880161065d565b94505060206106ab8782880161047a565b93505060406106bc8782880161047a565b92505060606106cd8782880161047a565b91505092959194509250565b600080600080608085870312156106f3576106f261042c565b5b60006107018782880161047a565b94505060206107128782880161047a565b93505060406107238782880161047a565b92505060606107348782880161065d565b91505092959194509250565b60006060820190506107556000830186610505565b6107626020830185610505565b61076f6040830184610505565b949350505050565b600081519050919050565b600081905092915050565b60005b838110156107ab578082015181840152602081019050610790565b60008484015250505050565b60006107c282610777565b6107cc8185610782565b93506107dc81856020860161078d565b80840191505092915050565b60006107f482856107b7565b915061080082846107b7565b91508190509392505050565b60007fff0000000000000000000000000000000000000000000000000000000000000082169050919050565b6000819050919050565b61085361084e8261080c565b610838565b82525050565b60008160601b9050919050565b600061087182610859565b9050919050565b600061088382610866565b9050919050565b61089b61089682610451565b610878565b82525050565b6000819050919050565b6108bc6108b78261063c565b6108a1565b82525050565b60006108ce8287610842565b6001820191506108de828661088a565b6014820191506108ee82856108ab565b6020820191506108fe82846108ab565b6020820191508190509594505050505056fe60e060405234801561001057600080fd5b5060405161188538038061188583398181016040528101906100329190610141565b60016000819055508273ffffffffffffffffffffffffffffffffffffffff1660808173ffffffffffffffffffffffffffffffffffffffff16815250508073ffffffffffffffffffffffffffffffffffffffff1660a08173ffffffffffffffffffffffffffffffffffffffff16815250508173ffffffffffffffffffffffffffffffffffffffff1660c08173ffffffffffffffffffffffffffffffffffffffff1681525050505050610194565b600080fd5b600073ffffffffffffffffffffffffffffffffffffffff82169050919050565b600061010e826100e3565b9050919050565b61011e81610103565b811461012957600080fd5b50565b60008151905061013b81610115565b92915050565b60008060006060848603121561015a576101596100de565b5b60006101688682870161012c565b93505060206101798682870161012c565b925050604061018a8682870161012c565b9150509250925092565b60805160a05160c0516116ad6101d86000396000818161052b015261090601526000818161018b01526104d3015260008181610167015261047c01526116ad6000f3fe608060405234801561001057600080fd5b50600436106100885760003560e01c80638fa040161161005b5780638fa04016146100ef5780639ab4a4451461010d578063b6b55f251461012b578063e180df651461014757610088565b806302d454571461008d5780632c387275146100ab5780633ccfd60b146100c9578063549dcc60146100d3575b600080fd5b610095610165565b6040516100a29190610e3e565b60405180910390f35b6100b3610189565b6040516100c09190610e3e565b60405180910390f35b6100d16101ad565b005b6100ed60048036038101906100e89190611015565b610479565b005b6100f76108ff565b60405161010491906110a7565b60405180910390f35b610115610904565b6040516101229190610e3e565b60405180910390f35b610145600480360381019061014091906110c2565b610928565b005b61014f610b63565b60405161015c91906110a7565b60405180910390f35b7f000000000000000000000000000000000000000000000000000000000000000081565b7f000000000000000000000000000000000000000000000000000000000000000081565b3373ffffffffffffffffffffffffffffffffffffffff16600160003373ffffffffffffffffffffffffffffffffffffffff1673ffffffffffffffffffffffffffffffffffffffff16815260200190815260200160002060000160009054906101000a900473ffffffffffffffffffffffffffffffffffffffff1673ffffffffffffffffffffffffffffffffffffffff161461027f57336040517f2457558c0000000000000000000000000000000000000000000000000000000081526004016102769190610e3e565b60405180910390fd5b610287610bad565b6000600160003373ffffffffffffffffffffffffffffffffffffffff1673ffffffffffffffffffffffffffffffffffffffff168152602001908152602001600020905060008160050154905060008260010160009054906101000a900473ffffffffffffffffffffffffffffffffffffffff169050600083600401548460030154610312919061111e565b4210905080156103495760006064600f8561032d9190611152565b61033791906111c3565b9050808461034591906111f4565b9350505b600160003373ffffffffffffffffffffffffffffffffffffffff1673ffffffffffffffffffffffffffffffffffffffff168152602001908152602001600020600080820160006101000a81549073ffffffffffffffffffffffffffffffffffffffff02191690556001820160006101000a81549073ffffffffffffffffffffffffffffffffffffffff02191690556002820160006103e79190610da0565b600382016000905560048201600090556005820160009055505061042c33848473ffffffffffffffffffffffffffffffffffffffff16610bf39092919063ffffffff16565b7fbb9de151d81dd760da27863d0d660381cf68e0926f37f2957d21ad0812978ab13383854285604051610463959493929190611243565b60405180910390a150505050610477610c72565b565b837f000000000000000000000000000000000000000000000000000000000000000073ffffffffffffffffffffffffffffffffffffffff168173ffffffffffffffffffffffffffffffffffffffff161415801561052257507f000000000000000000000000000000000000000000000000000000000000000073ffffffffffffffffffffffffffffffffffffffff168173ffffffffffffffffffffffffffffffffffffffff1614155b801561057a57507f000000000000000000000000000000000000000000000000000000000000000073ffffffffffffffffffffffffffffffffffffffff168173ffffffffffffffffffffffffffffffffffffffff1614155b156105bc57806040517f94403b700000000000000000000000000000000000000000000000000000000081526004016105b39190610e3e565b60405180910390fd5b6105c4610bad565b6000841161060957836040517f9af7044800000000000000000000000000000000000000000000000000000000815260040161060091906110a7565b60405180910390fd5b6000821161064e57816040517fe8b61d2600000000000000000000000000000000000000000000000000000000815260040161064591906110a7565b60405180910390fd5b600073ffffffffffffffffffffffffffffffffffffffff16600160003373ffffffffffffffffffffffffffffffffffffffff1673ffffffffffffffffffffffffffffffffffffffff16815260200190815260200160002060000160009054906101000a900473ffffffffffffffffffffffffffffffffffffffff1673ffffffffffffffffffffffffffffffffffffffff161461072157336040517f12f2cf900000000000000000000000000000000000000000000000000000000081526004016107189190610e3e565b60405180910390fd5b61074e3330868873ffffffffffffffffffffffffffffffffffffffff16610c7c909392919063ffffffff16565b60006040518060c001604052803373ffffffffffffffffffffffffffffffffffffffff1681526020018773ffffffffffffffffffffffffffffffffffffffff16815260200185815260200142815260200184815260200186815250905080600160003373ffffffffffffffffffffffffffffffffffffffff1673ffffffffffffffffffffffffffffffffffffffff16815260200190815260200160002060008201518160000160006101000a81548173ffffffffffffffffffffffffffffffffffffffff021916908373ffffffffffffffffffffffffffffffffffffffff16021790555060208201518160010160006101000a81548173ffffffffffffffffffffffffffffffffffffffff021916908373ffffffffffffffffffffffffffffffffffffffff160217905550604082015181600201908161088e91906114ad565b50606082015181600301556080820151816004015560a082015181600501559050507ff4920abfac0818687cd4983f41cc8a109b9ee1f63d7dcfa3cca021fa2768885f33878742876040516108e795949392919061157f565b60405180910390a1506108f8610c72565b5050505050565b600f81565b7f000000000000000000000000000000000000000000000000000000000000000081565b3373ffffffffffffffffffffffffffffffffffffffff16600160003373ffffffffffffffffffffffffffffffffffffffff1673ffffffffffffffffffffffffffffffffffffffff16815260200190815260200160002060000160009054906101000a900473ffffffffffffffffffffffffffffffffffffffff1673ffffffffffffffffffffffffffffffffffffffff16146109fa57336040517f2457558c0000000000000000000000000000000000000000000000000000000081526004016109f19190610e3e565b60405180910390fd5b610a02610bad565b60008103610a4757806040517f9af70448000000000000000000000000000000000000000000000000000000008152600401610a3e91906110a7565b60405180910390fd5b6000600160003373ffffffffffffffffffffffffffffffffffffffff1673ffffffffffffffffffffffffffffffffffffffff1681526020019081526020016000209050610adb3330848460010160009054906101000a900473ffffffffffffffffffffffffffffffffffffffff1673ffffffffffffffffffffffffffffffffffffffff16610c7c909392919063ffffffff16565b81816005016000828254610aef919061111e565b925050819055507fcf1f679e6fab15306c35a02f98bb653ccbe4b8863acf1d569d0e2232a6da5be8338260010160009054906101000a900473ffffffffffffffffffffffffffffffffffffffff168442604051610b4f94939291906115d2565b60405180910390a150610b60610c72565b50565b6000600160003373ffffffffffffffffffffffffffffffffffffffff1673ffffffffffffffffffffffffffffffffffffffff16815260200190815260200160002060050154905090565b600260005403610be9576040517f3ee5aeb500000000000000000000000000000000000000000000000000000000815260040160405180910390fd5b6002600081905550565b610c6d838473ffffffffffffffffffffffffffffffffffffffff1663a9059cbb8585604051602401610c26929190611617565b604051602081830303815290604052915060e01b6020820180517bffffffffffffffffffffffffffffffffffffffffffffffffffffffff8381831617835250505050610cfe565b505050565b6001600081905550565b610cf8848573ffffffffffffffffffffffffffffffffffffffff166323b872dd868686604051602401610cb193929190611640565b604051602081830303815290604052915060e01b6020820180517bffffffffffffffffffffffffffffffffffffffffffffffffffffffff8381831617835250505050610cfe565b50505050565b600080602060008451602086016000885af180610d21576040513d6000823e3d81fd5b3d925060005191505060008214610d3c576001811415610d58565b60008473ffffffffffffffffffffffffffffffffffffffff163b145b15610d9a57836040517f5274afe7000000000000000000000000000000000000000000000000000000008152600401610d919190610e3e565b60405180910390fd5b50505050565b508054610dac906112d0565b6000825580601f10610dbe5750610ddd565b601f016020900490600052602060002090810190610ddc9190610de0565b5b50565b5b80821115610df9576000816000905550600101610de1565b5090565b600073ffffffffffffffffffffffffffffffffffffffff82169050919050565b6000610e2882610dfd565b9050919050565b610e3881610e1d565b82525050565b6000602082019050610e536000830184610e2f565b92915050565b6000604051905090565b600080fd5b600080fd5b610e7681610e1d565b8114610e8157600080fd5b50565b600081359050610e9381610e6d565b92915050565b6000819050919050565b610eac81610e99565b8114610eb757600080fd5b50565b600081359050610ec981610ea3565b92915050565b600080fd5b600080fd5b6000601f19601f8301169050919050565b7f4e487b7100000000000000000000000000000000000000000000000000000000600052604160045260246000fd5b610f2282610ed9565b810181811067ffffffffffffffff82111715610f4157610f40610eea565b5b80604052505050565b6000610f54610e59565b9050610f608282610f19565b919050565b600067ffffffffffffffff821115610f8057610f7f610eea565b5b610f8982610ed9565b9050602081019050919050565b82818337600083830152505050565b6000610fb8610fb384610f65565b610f4a565b905082815260208101848484011115610fd457610fd3610ed4565b5b610fdf848285610f96565b509392505050565b600082601f830112610ffc57610ffb610ecf565b5b813561100c848260208601610fa5565b91505092915050565b6000806000806080858703121561102f5761102e610e63565b5b600061103d87828801610e84565b945050602061104e87828801610eba565b935050604085013567ffffffffffffffff81111561106f5761106e610e68565b5b61107b87828801610fe7565b925050606061108c87828801610eba565b91505092959194509250565b6110a181610e99565b82525050565b60006020820190506110bc6000830184611098565b92915050565b6000602082840312156110d8576110d7610e63565b5b60006110e684828501610eba565b91505092915050565b7f4e487b7100000000000000000000000000000000000000000000000000000000600052601160045260246000fd5b600061112982610e99565b915061113483610e99565b925082820190508082111561114c5761114b6110ef565b5b92915050565b600061115d82610e99565b915061116883610e99565b925082820261117681610e99565b9150828204841483151761118d5761118c6110ef565b5b5092915050565b7f4e487b7100000000000000000000000000000000000000000000000000000000600052601260045260246000fd5b60006111ce82610e99565b91506111d983610e99565b9250826111e9576111e8611194565b5b828204905092915050565b60006111ff82610e99565b915061120a83610e99565b9250828203905081811115611222576112216110ef565b5b92915050565b60008115159050919050565b61123d81611228565b82525050565b600060a0820190506112586000830188610e2f565b6112656020830187610e2f565b6112726040830186611098565b61127f6060830185611098565b61128c6080830184611234565b9695505050505050565b600081519050919050565b7f4e487b7100000000000000000000000000000000000000000000000000000000600052602260045260246000fd5b600060028204905060018216806112e857607f821691505b6020821081036112fb576112fa6112a1565b5b50919050565b60008190508160005260206000209050919050565b60006020601f8301049050919050565b600082821b905092915050565b6000600883026113637fffffffffffffffffffffffffffffffffffffffffffffffffffffffffffffffff82611326565b61136d8683611326565b95508019841693508086168417925050509392505050565b6000819050919050565b60006113aa6113a56113a084610e99565b611385565b610e99565b9050919050565b6000819050919050565b6113c48361138f565b6113d86113d0826113b1565b848454611333565b825550505050565b600090565b6113ed6113e0565b6113f88184846113bb565b505050565b5b8181101561141c576114116000826113e5565b6001810190506113fe565b5050565b601f8211156114615761143281611301565b61143b84611316565b8101602085101561144a578190505b61145e61145685611316565b8301826113fd565b50505b505050565b600082821c905092915050565b600061148460001984600802611466565b1980831691505092915050565b600061149d8383611473565b9150826002028217905092915050565b6114b682611296565b67ffffffffffffffff8111156114cf576114ce610eea565b5b6114d982546112d0565b6114e4828285611420565b600060209050601f8311600181146115175760008415611505578287015190505b61150f8582611491565b865550611577565b601f19841661152586611301565b60005b8281101561154d57848901518255600182019150602085019450602081019050611528565b8683101561156a5784890151611566601f891682611473565b8355505b6001600288020188555050505b505050505050565b600060a0820190506115946000830188610e2f565b6115a16020830187610e2f565b6115ae6040830186611098565b6115bb6060830185611098565b6115c86080830184611098565b9695505050505050565b60006080820190506115e76000830187610e2f565b6115f46020830186610e2f565b6116016040830185611098565b61160e6060830184611098565b95945050505050565b600060408201905061162c6000830185610e2f565b6116396020830184611098565b9392505050565b60006060820190506116556000830186610e2f565b6116626020830185610e2f565b61166f6040830184611098565b94935050505056fea2646970667358221220fe6fb52eb5a56a2f94d93441fef2018c9ad51f97ebb9db4aaee5c835dfc92a6564736f6c634300081c0033a264697066735822122093c0a753f8e7713112cdc795df9509cb20d1f75c9e82ffc556164fd01934dc5d64736f6c634300081c0033",
    "linkReferences": {},
    "deployedLinkReferences": {}
}